:020000040800F2
:10000000C8060020ED010008471300089D0F0008F6
:1000100045130008DB030008491400080000000035
:10002000000000000000000000000000FF010008C8
:10003000DD03000800000000030200084913000867
:10004000070200080702000807020008070200086C
:10005000070200080702000807020008070200085C
:10006000070200080702000807020008070200084C
:10007000070200080702000807020008070200083C
:10008000070200080702000807020008070200082C
:10009000070200080702000807020008070200081C
:1000A000070200080702000807020008070200080C
:1000B00007020008070200080702000807020008FC
:1000C00007020008070200080702000807020008EC
:1000D00007020008070200080702000807020008DC
:1000E00007020008070200080702000800000000DD
:1000F0000000000000000000000000000000000000
:1001000000000000000000000702000807020008CD
:10011000070200080702000807020008C5130008CC
:10012000070200080702000807020008070200088B
:10013000070200080702000807020008070200087B
:10014000070200080702000807020008070200086B
:1001500000F002F800F03AF80AA090E8000C82449F
:100160008344AAF10107DA4501D100F02FF8AFF27C
:10017000090EBAE80F0013F0010F18BFFB1A43F085
:10018000010318473813000058130000103A24BF29
:1001900078C878C1FAD8520724BF30C830C144BFEC
:1001A00004680C607047000000230024002500262E
:1001B000103A28BF78C1FBD8520728BF30C148BFCA
:1001C0000B6070471FB51FBD10B510BD00F0CFF814
:1001D0001146FFF7F7FF01F049F900F0EDF803B41D
:1001E000FFF7F2FF03BC00F0F1F800000948804778
:1001F00009480047FEE7FEE7FEE7FEE7FEE7FEE709
:10020000FEE7FEE7FEE7FEE704480549054A064B20
:1002100070470000C113000851010008C800002009
:10022000C8060020C8020020C802002053EA020CC1
:1002300000F069802DE9F04B4FF00006002B1FBF46
:10024000B3FA83F503FA05F424FA05F65E4012BF0B
:100250001643B2FA82F502FA05F4C5F120051EBF75
:1002600022FA05FC44EA0C04203556EA044C4FEA15
:10027000144418BF641C4FF000084FF0000990426E
:1002800071EB030C39D3002919BFB1FA81F701FAD8
:1002900007F6B0FA80F700FA07F6C7F120071EBF8D
:1002A00020FA07FC46EA0C062037B6FBF4FCA7EB65
:1002B0000507103F07F01F0BCBF120060CFA0BFBD4
:1002C0002CFA06F644BFB3460026202FA4BF5E4694
:1002D0004FF0000B5BEA060C08BF4FF0010B19EB67
:1002E0000B09ABFB027C48EB0608C01B06FB02CCEB
:1002F0000BFB03CC71EB0C01C1E70B4602464146F8
:100300004846BDE8F08B13B54FF000004FF00001F8
:10031000AFF30080BDE81C4070474FF0000200B50D
:10032000134694469646203922BFA0E80C50A0E818
:100330000C50B1F12001BFF4F7AF090728BFA0E8C6
:100340000C5048BF0CC05DF804EB890028BF40F892
:10035000042B08BF704748BF20F8022B11F0804FD4
:1003600018BF00F8012B70477047704770477546FB
:1003700000F028F8AE4605006946534620F0070015
:10038000854618B020B5FFF73FFFBDE820404FF08D
:1003900000064FF000074FF000084FF0000B21F06F
:1003A0000701AC46ACE8C009ACE8C009ACE8C0093C
:1003B000ACE8C0098D4670470446AFF30080204684
:1003C000FFF70DFF00487047680000200149182022
:1003D000ABBEFEE7260002007047FEE7704772B62C
:1003E000FEE7000070B5044600F0FEF80546601C0C
:1003F00002D004480078044400F0F6F8401BA04204
:10040000FAD370BD000000202DE9F84FDFF8A49169
:10041000002409F1040A0AF1040B23464FF00F08E7
:100420000BF1040EBEE00127A7403A40BA4272D158
:10043000DFF884C14D68A5EB0C0665452BD00DDCBB
:10044000032D34D005DC35B3012D19D0022D2FD169
:100450001BE0112D16D0122D2AD119E0B6F5881FF8
:1004600019D006DCB6F5803F15D0B6F5801F1FD138
:1004700011E0B6F5001F0ED0B6F5041F18D10AE042
:10048000CB6815E0CB681B1D12E0CB6808330FE08A
:10049000CB680C330CE08B682BB1012B4FF00803B9
:1004A00003D0476104E0042302E0076100E0002379
:1004B000FF2A01D8064601E000F104064FEA840550
:1004C00001D9A5F12005376808FA05FC27EA0C07D1
:1004D00003FA05F547EA050737604D68ED0060D57A
:1004E000364DAE6946F00106AE61AD6924F00306F3
:1004F00005F001050095324D7719BE68A5072D0F4F
:1005000008FA05FC26EA0C06DFF8B8C0604503D1FE
:100510004FF0000C17E044E0DFF8ACC0604502D1BA
:100520004FF0010C0FE0DFF8A4C0604502D14FF09E
:10053000020C08E0DFF898C0604502D14FF0030CD0
:1005400001E04FF0040C0CFA05FC4CEA060CC7F86D
:1005500008C04D68D9F80060ED034D4601D516433B
:1005600000E096432E604D68DAF80060AD03554612
:1005700001D5164300E096432E604D68DBF800601D
:10058000ED025D4601D5164300E096432E604D68AE
:10059000DEF80060AD02754601D5164300E09643D3
:1005A0002E60641C0A6832FA04F57FF43CAFBDE8A3
:1005B000F88F0000000401400000111000100240FC
:1005C0000000014000080140000C01400010014003
:1005D000001401408068084000D0012070470AB133
:1005E000016170470904FBE701488068704700001B
:1005F0000000002002488168027811448160704741
:1006000000000020074810B5016841F010010160AA
:10061000032000F075F8002000F006F800F024F840
:10062000002010BD0020024070B50D4D04464FF46F
:100630007A712878B1FBF0F00A490968B1FBF0F053
:1006400000F058FB48B9102C07D200222146501E5A
:1006500000F036F800206C6070BD012070BD000015
:10066000000000200C0000200C4808B5816941F012
:1006700001018161816901F001010091C16941F0CD
:100680008051C161C069064900F0805000904868FF
:1006900020F0E06040F08060486008BD001002403B
:1006A00000000140002809DB00F01F0201219140F9
:1006B0004009800000F1E020C0F800117047000000
:1006C000F0B40E4B1B68C3F30223C3F10704042CE0
:1006D00000D904241D1D072D01D2002300E0DB1EDC
:1006E000012606FA04F56D1E0D409D409E40761EC3
:1006F000164045EA0601F0BC00F0A7BE0CED00E094
:10070000064A00F0070110684FF6FF03184040EA60
:100710000120034908431060704700000CED00E021
:100720000000FA052DE9F0470D46040067D0DFF818
:100730001881D8F8000000F00700A8420CD2D8F8C1
:10074000001021F007012943C8F80010D8F8000074
:1007500000F00700A84252D120683C4E810712D514
:10076000400703D5706840F4E060706020780007AF
:1007700003D5706840F4605070607068A16820F024
:10078000F000084370602078C00727D06068012817
:1007900010D03168022810D0890700292FDA71683B
:1007A00021F0030101437160FFF71EFF074641F28C
:1007B00088390CE031688903EFE78901EDE7FFF73D
:1007C00013FFC11B494502D90320BDE8F0877068BB
:1007D000616800F00C00B0EB810FF0D1D8F8001088
:1007E000404601F00701A9420BD9016821F0070139
:1007F00029430160006800F00700A84201D00120F1
:10080000E3E72078400705D57068E16820F4E060F0
:10081000084370602078000706D57068216920F4CD
:10082000605040EAC100706000F018F87168084A32
:10083000C1F30311515CC8400649086006480068CE
:10084000FFF7F2FE0020C0E7002002400010024047
:10085000AC1400080C00002004000020F0B524A017
:1008600089B00FC88DE80F0025A004AC0FC884E83C
:100870000F00274B586800F00C01042904D0082908
:1008800004D0244809B0F0BD2348FBE7C0F38342FD
:10089000C0031DF8024028D5D86A04A900F00F0053
:1008A000085CD96AC90316D5D96AC1F30312D96A9B
:1008B000521CC1F30321891CA2FB0023A1FB0417D6
:1008C000154D0026A1FB050C07FB05C501FB0651D4
:1008D000FFF7ACFC03E010496143B1FBF0F09DF879
:1008E0000D10A142CED14008CCE70C486043C9E7C7
:1008F000000004050607080900000000000D0000C4
:100900000102030405060708090A0B0C0D0E0F105F
:100910000010024000127A008096980000093D0005
:100920002DE9F84F04006ED02078ED4DC00747D078
:100930006868C0F38100012807D06868C0F38100AF
:10094000022809D16868C00306D52868800337D516
:10095000A0680028E7D033E0A068B0F5803F0BD056
:1009600010B1B0F5A02F11D0286820F48030286095
:10097000286820F4802002E0286840F48030286055
:10098000A06888B1FFF730FE064609E0286840F409
:1009900080202860F0E7FFF727FE801B642874D8CA
:1009A00028688003F7D50BE0FFF71EFE064604E03B
:1009B000FFF71AFE801B6428F1D828688003F7D45B
:1009C0002078C84E80074FF0010A4FF000073AD553
:1009D000686810F00C0F07D06868C0F38100022827
:1009E00009D16868C00306D42868800715D56069F6
:1009F000012808D111E06069B8B1C6F800A0FFF77E
:100A0000F3FD804606E041E1FFF7EEFDA0EB0800B4
:100A10000228C4D828688007F6D52868A16920F084
:100A2000F80040EAC10028600DE03760FFF7DCFD08
:100A3000804605E0FFF7D8FDA0EB08000228AED8FD
:100A400028688007F6D4207800072DD5A648E169EC
:100A5000E1B1C0F800A0FFF7C7FD804605E0FFF751
:100A6000C3FDA0EB0800022899D8686A8007F6D574
:100A70009E484FF4FA510068B0FBF1F0009000BFBF
:100A80000098411E0091FAD20EE0B1E00760FFF736
:100A9000ABFD804605E0FFF7A7FDA0EB08000228AC
:100AA0008AD8686A8007F6D42078400762D5E8695A
:100AB0004FF00009C00009D4E86940F08050E861B7
:100AC000E8694FF0010900F0805000908848016803
:100AD000C90512D40168834641F480710160FFF7B3
:100AE00083FD804605E0FFF77FFDA0EB080064284A
:100AF0007ED8DBF80000C005F5D5206901280AD0B2
:100B000008B1052813D0286A20F001002862286A5D
:100B100020F0040002E0286A40F001002862206909
:100B200041F2883B90B1FFF75FFD80460AE0286AFA
:100B300040F004002862EEE7FFF756FDA0EB080145
:100B4000594555D8286A8007F6D50CE0FFF74CFDCB
:100B5000804605E0FFF748FDA0EB0801594547D85E
:100B6000286A8007F6D4B9F1000F03D0E86920F0B5
:100B70008050E861E06AE0B36968C90307D5696835
:100B8000C1F38101022902D1E96AC9037ED4022896
:100B900008D0E86A20F48030E862B766FFF724FDE9
:100BA00080463BE02868C00005D5E86A616B00F02C
:100BB000F00088426AD1B766FFF716FD804605E06F
:100BC000FFF712FDA0EB0800642871D82868000127
:100BD000F6D4E86A616B20F0F0000843E862E86A46
:100BE000216B20F470600843E862C6F868A001E059
:100BF0005EE016E0FFF7F8FC804605E0FFF7F4FC46
:100C0000A0EB0800642853D828680001F6D508E056
:100C1000FFF7EAFCA0EB0800642849D82868000127
:100C2000F6D4206A98B36968C1F38101022946D0DD
:100C30000228376603D0FFF7D7FC04463BE0FFF7F6
:100C4000D3FC074604E0FFF7CFFCC01B02282FD8D7
:100C500028688001F7D4606AB0F5803F09D1E86A5E
:100C600061680843E862E86AE16820F00F00084321
:100C7000E862D4E909010843696821F47411084362
:100C80006860C6F860A0FFF7AFFC01E024E025E053
:100C9000044604E0FFF7A8FC001B022808D82868D7
:100CA0008001F7D51AE0FFF79FFC001B022802D94C
:100CB0000320BDE8F88F28688001F4D40EE00128F5
:100CC000F7D06868626A00F48031914204D1A16A69
:100CD00000F47010884201D00120EAE70020E8E724
:100CE0000010024000004242800442420C000020FA
:100CF0000070004010B5401EB0F1807F01D301208C
:100D000010BD4FF0E02460610F21601700F09DFBE3
:100D10000020A06107202061002010BD70477047AF
:100D200070B590F83C20012A29D0012580F83C506C
:100D3000022280F83D2002685368946823F0700610
:100D40000B68334353600F4B02689A420BD0B2F1E9
:100D5000804F08D00C4B9A4205D00C4B9A4202D0DF
:100D60000B4B9A4204D1496824F0800319439160E7
:100D700080F83D50002180F83C10084670BD0220EC
:100D800070BD0000002C014000040040000800403D
:100D9000000C004010B5040003D094F83D0010B1E1
:100DA00007E0012010BD002084F83C00204600F040
:100DB0001FF8022084F83D00211D206800F008FB88
:100DC000012084F8460084F83E0084F83F0084F84F
:100DD000400084F8410084F8420084F8430084F81D
:100DE000440084F8450084F83D00002010BD000058
:100DF00008B500680B49884212D10B48C16941F01F
:100E00002001C161C069002200F02000009011465D
:100E10003720FFF755FCBDE808403720FFF742BCFC
:100E200008BD00000014004000100240704770B57B
:100E30000446006801694FF00005C943890715D4CD
:100E4000C168C943890711D4E91E016101202077D7
:100E5000206880698007204602D0FFF7E7FF04E0A2
:100E600000F098F8204600F096F825772068016990
:100E7000C943490717D4C168C943490713D46FF060
:100E800004010161022020772068806910F4407F0E
:100E9000204602D0FFF7CAFF04E000F07BF82046AE
:100EA00000F079F8257720680169C943090716D44D
:100EB000C168C943090712D46FF008010161042019
:100EC00020772068C0698007204602D0FFF7AEFF78
:100ED00004E000F05FF8204600F05DF82577206818
:100EE0000169C943C90617D4C168C943C90613D4E7
:100EF0006FF010010161082020772068C06910F4AC
:100F0000407F204602D0FFF791FF04E000F042F856
:100F1000204600F040F8257720680169C943C907D9
:100F200008D1C168C943C90704D1891E016120469F
:100F300000F032F820680169C943090609D4C16884
:100F4000C943090605D46FF0800101612046FFF70F
:100F5000E5FE20680169C943490609D4C168C9434F
:100F6000490605D46FF040010161204600F015F8F4
:100F700020680169C94389060BD4C168C943890641
:100F800007D46FF0200101612046BDE87040FFF7F3
:100F9000C6BE70BD7047704770477047FEE700EBF4
:100FA0008110C0B240F0800000F0A8B87CB50024E9
:100FB0008DF8004024484FF4FE6101940160012146
:100FC00041600321C160214D01462846FFF71CFA0C
:100FD000002229152846FFF702FB0022A915284602
:100FE000FFF7FDFA002269152846FFF7F8FA0A20F4
:100FF000FFF7F8F98DF800400AE0032000F0B6F89A
:101000000A20FFF7EFF99DF80000401C8DF8000062
:101010009DF800000328F0D3022000F0A7F80A2072
:10102000FFF7E0F9282000F069F8082000F066F8E2
:10103000012000F063F8062000F060F8BDE87C4075
:101040000C2000F05BB800005800002000180140A0
:1010500070B50122124E550229463046FFF7BFFAFD
:1010600010213046FFF7B6FA044620213046FFF73C
:10107000B1FA44EA400440213046FFF7ABFA44EAB3
:10108000800480213046FFF7A5FA44EAC000C4B2CC
:10109000002229463046FFF7A2FA204670BD000024
:1010A000001801402DE9F041124CF0260025124FA6
:1010B000C4E9006521463846FFF7A6F901229102EE
:1010C0003846FFF78CFA0022B9153846FFF787FA41
:1010D000FFF7BEFF45EA0010C5B2FFF7B9FF0543B1
:1010E0000120C4E9006021463846FFF78DF9284603
:1010F000BDE8F081580000200018014070B50C4D8B
:10110000044600224FF480612846FFF768FA002267
:10111000A9152846FFF763FA200900F027F804F024
:101120000F0000F023F8FFF7BDFF0006FBD470BDF1
:101130000018014070B50C4D044600224FF4806148
:101140002846FFF74CFA012211022846FFF747FA1A
:10115000200900F00BF804F00F0000F007F8FFF78B
:10116000A1FF0006FBD470BD0018014070B501223C
:10117000124E0446550229463046FFF730FA04F075
:10118000010210213046FFF72AFA04F00202202162
:101190003046FFF724FA04F0040240213046FFF7FE
:1011A0001EFA04F0080280213046FFF718FA29469B
:1011B0003046BDE870400022FFF711BA0018014028
:1011C00010B5044602E0641CFFF7B4FF2078002845
:1011D000F9D110BD10B50B46044611461846FFF76D
:1011E000DEFE02E0641CFFF7A5FF20780028F9D19D
:1011F00010BD00002DE9F04385B000243A4800946A
:10120000019402940394816941F0400181618169F4
:1012100001F040010491816941F01001816181690F
:1012200001F010010491816941F008018161816937
:1012300001F008010491816941F020018161806918
:10124000DFF8A88000F020004FF47C5504900022C5
:1012500029464046FFF7C3F94FF44047012239467B
:101260004046FFF7BCF9DFF888900022FE2148468F
:10127000FFF7B5F9FF20CDE9000469464046029426
:10128000FFF7C2F843F2F030CDE90004694619488F
:101290000294FFF7B9F84CF22220CDE90004694628
:1012A00015480294FFF7B0F80126CDE90056022553
:1012B00069464046CDE90245FFF7A6F801AA11208C
:1012C000009782E8310069464046FFF79DF8FE200E
:1012D000CDE9000669464846CDE90245FFF794F896
:1012E00005B0BDE8F0830000001002400018014086
:1012F0000014014000100140000C01401CB5002406
:101300000F4800940D49019401604FF4E151C0E988
:1013100001144FF47A718461C160FFF73BFD08B19D
:10132000FFF75DF80094694605480194FFF7F8FC63
:10133000002801D0FFF753F81CBD00000014004046
:1013400010000020FEE7FEE7FFF754B930B593B078
:1013500038216846FEF7E1FF14210EA8FEF7DDFFF5
:10136000012528040421CDE902010224CDE9084029
:101370000095019005954FF4E010CDE90A044FF473
:10138000C0600C9010200D906846FFF7C9FA08B1B4
:1013900072B6FEE70F20CDE90E0400204FF4806105
:1013A000CDE91001129002210EA8FFF7BBF908B198
:1013B00072B6FEE70148056713B030BD0000424237
:1013C000704700000148FFF732BD00001000002008
:1013D000F0B50268184C194D194E1A4F4FF0804C59
:1013E000A04207D0604505D0A84203D0B04201D04A
:1013F000B84203D122F070034A681A43A04207D0D2
:10140000604505D0A84203D0B04201D0B84203D114
:1014100022F44073CA681A434B6922F080021A43CF
:1014200002608A68C2620A688262A04201D10969C8
:10143000016301214161F0BD002C01400004004026
:1014400000080040000C0040FEE70907090E0028D4
:1014500004DB00F1E02080F80014704700F00F007A
:1014600000F1E02080F8141D70470000FFF7CAF873
:10147000FFF76CFFFFF7BEFEFFF740FFFFF796FD9B
:1014800004A0FFF79DFE0122002106A0FFF7A2FEA7
:10149000FEE700004269656C65636B69204D726F01
:1014A0007A656B00506C65737A6B75000000000004
:1014B000000000000102030406070809DC1400080C
:1014C00000000020100000008C010008EC1400084F
:1014D00010000020B8060000A8010008010000006C
:0C14E00010000000000000000024F400D8
:04000005080001519D
:00000001FF
