:020000040800F2
:100000002808002005020008E72C00082125000828
:10001000E52C0008DB130008752D00080000000027
:1000200000000000000000000000000017020008AF
:10003000DD130008000000001B020008E92C000886
:100040001F0200081F0200081F0200081F0200080C
:100050001F0200081F0200081F0200081F020008FC
:100060001F0200081F0200081F0200081F020008EC
:100070001F0200081F0200081F0200081F020008DC
:100080001F0200081F0200081F0200081F020008CC
:100090001F0200081F0200081F0200081F020008BC
:1000A0001F0200081F0200081F0200081F020008AC
:1000B0001F0200081F0200081F0200081F0200089C
:1000C0001F0200081F0200081F0200081F0200088C
:1000D0001F0200081F0200081F0200081F0200087C
:1000E0001F0200081F0200081F0200080000000095
:1000F0000000000000000000000000000000000000
:1001000000000000000000001F0200081F0200089D
:100110001F0200081F0200081F020008F12C00083F
:100120001F0200081F0200081F0200081F0200082B
:100130001F0200081F0200081F0200081F0200081B
:100140001F0200081F0200081F0200081F0200080B
:1001500000F002F800F047F80AA090E8000C824492
:100160008344AAF10107DA4501D100F03CF8AFF26F
:10017000090EBAE80F0013F0010F18BFFB1A43F085
:10018000010318476438000084380000103A24BF87
:1001900078C878C1FAD8520724BF30C830C144BFEC
:1001A00004680C607047000000230024002500262E
:1001B000103A28BF78C1FBD8520728BF30C148BFCA
:1001C0000B607047662903F03E83002070471FB51F
:1001D00000F0C6FB04000020002103F02BF9E060D2
:1001E0001FBD10B510BD00F0BBFC1146FFF7EFFFBF
:1001F00003F06EF800F0D9FC03B4FFF7F2FF03BC84
:1002000000F01CFD0948804709480047FEE7FEE76B
:10021000FEE7FEE7FEE7FEE7FEE7FEE7FEE7FEE7B6
:1002200004480549054A064B70470000ED2C0008BC
:10023000510100082802002028080020280400207E
:100240002804002053EA020C00F069802DE9F04BED
:100250004FF00006002B1FBFB3FA83F503FA05F435
:1002600024FA05F65E4012BF1643B2FA82F502FA8E
:1002700005F4C5F120051EBF22FA05FC44EA0C0472
:10028000203556EA044C4FEA144418BF641C4FF062
:1002900000084FF00009904271EB030C39D300299C
:1002A00019BFB1FA81F701FA07F6B0FA80F700FA40
:1002B00007F6C7F120071EBF20FA07FC46EA0C0626
:1002C0002037B6FBF4FCA7EB0507103F07F01F0B28
:1002D000CBF120060CFA0BFB2CFA06F644BFB34612
:1002E0000026202FA4BF5E464FF0000B5BEA060CF1
:1002F00008BF4FF0010B19EB0B09ABFB027C48EB7D
:100300000608C01B06FB02CC0BFB03CC71EB0C01F7
:10031000C1E70B46024641464846BDE8F08B13B59F
:100320004FF000004FF00001AFF30080BDE81C402B
:10033000704710B54C1084EA530404D54042C1F113
:10034000000138BF491E1B4204D55242C3F10003CD
:1003500038BF5B1EFFF776FF14F0804F04D0404299
:10036000C1F1000138BF491E14F0004F04D05242C1
:10037000C3F1000338BF5B1E10BD00000FB41CB5F5
:10038000074B06AA7B4469460090059800F0CFFA17
:100390000020694600F0DEFA1CBC5DF814FB00008A
:1003A000CD0500002DE9F0474FF0000A89460446CC
:1003B000C0F820A02046E1688847002876D025288C
:1003C00006D0D4E901219047206A401C2062F1E761
:1003D000E168204600258847C4F81CA0064600278F
:1003E000C4F818A02A2E09D0304602F06AFF38B3AC
:1003F00004EB8708303EC8F8186019E059F8041B70
:10040000204604EB87029161E1688847012F064688
:1004100018D1E069002820DA25F020051DE0D8F881
:10042000180000EB800006EB40003038C8F81800D8
:100430002046E1688847064602F043FF0028EED1D7
:10044000012F0AD02E2E08D12046E16888477F1C54
:100450000646022F45F02005C4DBA069002803DA18
:10046000404245F00105A061E80701D025F01005E4
:10047000B6B1A6F14100192802D8203645F400652E
:100480004A463146204625604D46FFF79BFE58B14F
:10049000012806D0ED1D25F0070000F1080989E7C5
:1004A00004E005F1040985E730468AE7206ABDE8E3
:1004B000F0874FF0000200B5134694469646203967
:1004C00022BFA0E80C50A0E80C50B1F12001BFF40D
:1004D000F7AF090728BFA0E80C5048BF0CC05DF873
:1004E00004EB890028BF40F8042B08BF704748BFC1
:1004F00020F8022B11F0804F18BF00F8012B704735
:1005000070477047704770472DE9FF4F0C461E46F5
:100510004FF0FF378BB0D2E90001DDF860800A9020
:100520008A46C1F30A5505B93D46002108464FF0F9
:100530000000BAF1000F00F4400005DA00EB800083
:100540004FF4400101EA50004FEA9059B9F1010F10
:1005500000DDB9460A9850EA4A000ED044F6105021
:10056000A5F2FF3545432F14B8F1000F1ED0754298
:10057000291E1EDDC9F100021CE0B8F1010F4FF089
:10058000000001D0302103E0F24305E02154401C7B
:10059000B042FBDB30460022002121540B99C1F808
:1005A0000880C1E900200FB0BDE8F08FBD1B6D1CB5
:1005B000DEE74A4600DA694206A800F05BFA06ABBD
:1005C00093E8070003AB83E8070050460A9900F060
:1005D0003CFB8DE80700A0F500501F380090039801
:1005E000002D0ADD42F21F014A460844002303A9F8
:1005F0000390684600F0A5FD09E0A0F500504A46CA
:100600001F38002303A90390684600F0AFFD8DE872
:1006100007000004000C03D04FF0FF30410800E059
:100620001046B8F1000F03D00022009215461EE0DC
:10063000751E05D400F098F9303262556D1EF9D55B
:10064000B3460122084302D000227F1C04E0207838
:10065000302801D100227F1E002A099784D01DE096
:10066000112D07DA00F080F9303262556D1C50EA26
:100670000102F5D1084302D00098C8B10EE0002174
:10068000681E05E0235C625C63542254401E491CD2
:100690008142F7DBAB46A81B401E0990002004F8FE
:1006A0000B000B98099AC0F80880C0E9002B7AE784
:1006B00011264FF0000857E72DE9F04F8846044611
:1006C000D21D22F0070191B0D1E90001CDE90A0164
:1006D00002F0D3FD02460B98C00F01D02D2007E099
:1006E0002068810701D52B2002E0202101EAC0000B
:1006F000032A099001D0072A05DB0346414620461C
:1007000000F078F90BE12078800601D5E06900E07F
:100710000620B8F1650F814606D0B8F1660F18D0F3
:10072000B8F1670F70D131E00020B9F1110F0090DE
:1007300001DB112301E009F101030AAA01A90CA8B8
:10074000FFF7E2FEDDE90C70002609F101058346A2
:1007500047E001204B4600904FF000470AAA01A94C
:100760000CA8FFF7D1FEDDE90DB00C995D4600261F
:1007700010B909F101000D18B9EB050003D4C0F15F
:10078000FF3609F10105A5EB09002BE0B9F1010FD6
:1007900001DA4FF001090020B9F1110F009048462D
:1007A00001DD112300E003460AAA01A90CA8FFF706
:1007B000ABFEDDE90C704D4600268346207800072D
:1007C0000AD4AB4500DA5D4601A8012D04DD4119CC
:1007D00011F8011C302907D04F4502DA17F1040F38
:1007E00004DA012082460FE06D1EEEE7002F02DCE6
:1007F000ED1B3E4403E0781CA84200DD7D1CB81BC5
:1008000000F1010A4FF000472078000703D4AA4501
:1008100001DB4FF0FF3A0021B7F1004F0DF1430823
:100820008DF8431024D002202B23002F01DA7F42C1
:100830002D230A21021EA0F1010000DC5FB197FB0D
:10084000F1FC97FBF1F201FB1C7C17460CF1300C1C
:1008500008F801CDEEE7A8F1010003702188090531
:1008600001D5452100E06521A0F1010800F8011C37
:1008700009980FA9A1EB0807FF1D00B1012041193C
:1008800001EBEA70A1693844081A401EA061207883
:10089000C00602D42046AFF30080099828B1D4E9FD
:1008A00001219047206A401C20622078C00622D592
:1008B0002046AFF300801EE0002E04DBB34502DDCE
:1008C00001A8805D00E03020D4E901219047206A32
:1008D000401C2062761CAAF101005FEA000A0AD1DE
:1008E00000F03EF8C0680168405CD4E901219047FF
:1008F000206A401C2062281EA5F10105DCDC07E00F
:10090000D4E9012118F8010B9047206A401C2062AD
:10091000381EA7F10107F3DC2046AFF30080032067
:1009200011B041E601694A1C02610878704700B5C0
:100930008FB0CDE901310021059105497944CDE918
:10094000031011466846FFF72DFD0FB000BD0000F3
:10095000E5FFFFFF0A6802F8010B0A60704700001C
:1009600000487047E801002030B5B0F10A024FEAB4
:10097000900E71F100034EEA817EB0EB0E0061EB48
:1009800091014FEA101E4EEA017E10EB0E0041EB82
:1009900011114FEA102E4EEA016E10EB0E0041EBE2
:1009A00011214FEA104E4EEA014E10EB0E0041EBC2
:1009B0001141401841F100014FEAD00040EA417076
:1009C0004FEAD10110EB80054FEA810444EA9074AC
:1009D00044EB01046D1944EB0404521BA3414FF096
:1009E000000348BF0A3200D530BD401C41F1000170
:1009F00030BD00002DE9F0411F4604460326016882
:100A0000072A01F4006004DB08B116A505E016A56D
:100A100003E008B115A500E015A521F01000206045
:100A2000A069C01EA0610FB1401EA0612046AFF3B7
:100A300000804FB1D4E9012138469047206A401C1C
:100A40002062C01C206206E0206AFAE7D4E9012196
:100A500015F8010B9047761EF8D22046AFF30080C0
:100A6000BDE8F0814E414E006E616E00494E460079
:100A7000696E66002DE9F047814616468AB0354812
:100A800078440DC88DE80D0032487844801C03ACD2
:100A90000DC884E80D0041F69B300844372190FBD7
:100AA000F1F290FBF1F5A5F1800501FB12041B3C6E
:100AB00002D56442012000E00020DFF898A08046C3
:100AC0000027FA44AAF1BE0A0EE0E0070AD0324637
:100AD000684607EB470101230AEB810100F046FB62
:100AE0008DE8070064107F1C002CEED1194F7F4465
:100AF000AE3F19E0E80715D007EB04100DF1180A16
:100B000090E80E008AE80E00C068F04201D1981902
:100B100008903246012306A903A800F027FB03AB87
:100B200083E807006D10641C002DE3D14FF0010332
:100B300032466946B8F1000F03A802D000F001FB6D
:100B400001E000F013FBC9E90001C9F808200AB070
:100B5000BDE8F0874C2F000000487047C801002016
:100B60007546FFF7F9FFAE4605006946534620F08B
:100B70000700854618B020B5FFF752FBBDE82040BE
:100B80004FF000064FF000074FF000084FF0000B49
:100B900021F00701AC46ACE8C009ACE8C009ACE8FC
:100BA000C009ACE8C0098D46704710B50446AFF3E4
:100BB00000802046BDE81040FFF71EBB4FF0013C0F
:100BC00050F8042B51F8043B9A4221D1A2EB0C03BC
:100BD000934313EACC1317D150F8042B51F8043B7C
:100BE0009A4215D1A2EB0C03934313EACC130BD119
:100BF00050F8042B51F8043B9A4209D1A2EB0C03A4
:100C0000934313EACC13DBD04FF00000704700BFD2
:100C1000D01A01BAB1FA81F101F0180122FA01F0FB
:100C2000CB40C1F12001DBB2C0B2C01A2CFA01F3F3
:100C3000D11A914311EAC311E6D170470149182036
:100C4000ABBEFEE72600020070475FEA400C08BF1B
:100C500091F0000F4FEA8C234FEAC12243EA515131
:100C60004FEA1C5018BF00F5F0404FEA300018BFA3
:100C700041F000415FEA6C5C00F02980BCF1FF3F6D
:100C800008BF40F080407047130C06BF12044FF0BD
:100C9000100C4FF0000C130E04BF12020CF1080CE4
:100CA000130F04BF12010CF1040C930F04BF920048
:100CB0000CF1020CD30F04BF52000CF1010C1146D1
:100CC0004FF00002A0F11F00A0EB0C00704711F0E4
:100CD000004F08BF704731F000413FF4D5AF0B0C17
:100CE00006BF09044FF0100C4FF0000C0B0E04BFB0
:100CF00009020CF1080C0B0F04BF09010CF1040CE4
:100D00008B0F04BF89000CF1020CCB0F04BF49000C
:100D10000CF1010CCCF12003A0EB0C0022FA03F340
:100D200002FA0CF241EA030100F10100704720F0E1
:100D30007F4C80EA030023F07F47ACEB070303F509
:100D40007C5300F0004003F1FF032DE980494FEA96
:100D5000154B09B44FEA144325EA0B4E24EA034825
:100D60000FF2042606EB132749083E785FEA3202A9
:100D700003FB0667C7F5000707FB06F64FEA543783
:100D80004FEAD64606F1020607FB066CCCF1005C82
:100D90004FEA1C472CEA074C07FB06F40CFB06F550
:100DA00004EB15464FEA961634BF00204FF0004082
:100DB0004FEAD13706FB07FC4FEA1C4C0CFB0BF744
:100DC000D21B03FB0CF761EB07010CFB0EF7B0EB3A
:100DD000074072EB17420CFB08F734BFA2EB074247
:100DE000B2EB074261EB17414FEA0C444FEA91071F
:100DF00006FB07FC4FEA1C4C0CFB0BF7B0EBC740A3
:100E000072EB573203FB0CF734BFA2EBC742B2EBD5
:100E1000C74261EB57310CFB0EF7B0EBC70072EB2A
:100E200057720CFB08F734BFA2EBC702B2EBC70244
:100E300061EB5771039F4FEA816141EA921104EB24
:100E4000CC044FEAD1374FEA826206FB07FC42EA44
:100E500090124FEA80604FEA1C4C0CFB0BF7D21B40
:100E600003FB0CF761EB07010CFB0EF7B0EB07403F
:100E700072EB17420CFB08F734BFA2EB0742B2EB50
:100E8000074261EB17414FEA8C554FEA910704EB9B
:100E90009C2406FB07FC4FEA1C4C0CFB0BF7B0EB49
:100EA000C74072EB573203FB0CF734BFA2EBC742CB
:100EB000B2EBC74261EB57310CFB0EF7B0EBC7004A
:100EC00072EB57720CFB08F734BFA2EBC702B2EB10
:100ED000C70261EB577115EB4C254FEA816141EA7E
:100EE00092114FEA82624FEAD13742EA901206FB32
:100EF00007FC44F100044FEA80604FEA1C4C0CFBF5
:100F00000BF7D21B03FB0CF761EB07010CFB0EF791
:100F1000B0EB074072EB17420CFB08F734BFA2EBB3
:100F20000742B2EB074261EB174115EB1C154FEA84
:100F3000813141EA92414FEA823242EA90424FEADD
:100F400080304FEA0C7644F1000448EA03434EEA4D
:100F50000B484FF0000EB2EB080C71EB030724BFF7
:100F6000624639464EEB0E0E4FF0000B0018524110
:100F700049414BEB0B0BB2EB080C71EB03077BF118
:100F8000000B24BF624639464EEB0E0E4FF0000BAD
:100F90000018524149414BEB0B0BB2EB080C71EBC3
:100FA00003077BF1000B24BF624639464EEB0E0E61
:100FB00051EA020718BF46F0010616EB0E7655F10E
:100FC000000254F1000103D5BDE88901BDE80088A5
:100FD000BDE88901BDE80048B619524141EB010165
:100FE000A3F10103704780807F7E7D7C7B7A7978D6
:100FF000777676757473727171706F6E6E6D6C6CDE
:101000006B6A6A696868676666656464636362617F
:101010006160605F5F5E5E5D5D5C5C5B5B5A5A5900
:10102000595858575756565555555454535352526C
:101030005251515050504F4F4F4E4E4D4D4D4C4CC4
:101040004C4B4B4B4A4A4A4949494848484747470D
:10105000474646464545454444444443434343424A
:10106000424242414141002B9C4630D477002BD074
:101070001CB54FEA370703B44FF010004FF01001D2
:10108000BAF1000F06D0BCF1000FDCBF40F0080041
:1010900040F008014FF000000FBCBDE810400BF11C
:1010A000010BBBF1010F08BF5FEA170722BF12F166
:1010B000010211F101014FF0004143F1000300F082
:1010C000004043EA00007047F9D35708D0E746EAEA
:1010D000064613F1400F4FEA16461FDD13F1200FAD
:1010E000DFBF16430A46002120335B42BED0C3F166
:1010F000200746EA064602FA07F74FEA164646EA8E
:101100000706C3F1200722FA03F201FA07F721FAD2
:1011100003F14FF0000342EA0702A7E746EA02069E
:1011200046EA06464FEA164646EA0106BCBF46EACC
:101130000646360C4FF000034FF000024FF000015E
:1011400094E72DE9804C9A46934670B491E83800B4
:1011500007C831EA400C48BF34EA430C03D5FFF717
:10116000E6FDFFF780FFF0BCBDE8008C2DE9804C68
:101170009A46934670B491E8380007C810F0804F43
:1011800008BF13F0804F03D100F005F8FFF76BFFA5
:10119000F0BCBDE8008C20F07F4780EA030023F01C
:1011A0007F4C07EB0C03A3F57C5300F00040A3F148
:1011B000FE0392F0000F00F0B38095F0000F00F0F6
:1011C00077802DE901494FEA11404FEA144621EAA0
:1011D000004800FB06FC24EA064708FB06F607FB6E
:1011E00008F800FB07F718EB06484CEB164C4FEAE3
:1011F000124B18EB07484FEA15464CEB174022EA12
:101200000B4E0BFB06FC25EA06470EFB06F607FB1A
:101210000EFE0BFB07F71EEB064E4CEB164C4FF089
:1012200000061EEB074E4CEB174B18EB0B0840F17A
:10123000000018EB0E0B58EB000840F100008F1A6D
:101240004FF000013CBFC943661B14BFB5EB040C53
:1012500000213CBFC943F61B4FEA17444EEA8E0EED
:1012600027EA04454FEA1C4704FB07622CEA074CB7
:1012700005FB07F70CFB05F604FB0CFC16EB074619
:1012800042EB174216EB0C4642EB1C421BEB0606E8
:1012900058EB0202414146EA9E0601D5BDE80189AC
:1012A000B619524141EB0101A3F10103BDE80189E7
:1012B0004FEA14454FEA114724EA054621EA074C54
:1012C00005FB07F406FB07F70CFB06F105FB0CFC1E
:1012D00011EB074144EB17444FEA124711EB0C4165
:1012E00044EB1C4422EA074C05FB07F206FB07F718
:1012F0000CFB06F605FB0CFC16EB074642EB17420F
:1013000016EB0C4642EB1C456A1854F1000148BF2D
:101310007047B619524141EB0101A3F10103704737
:1013200095F0000F37D04FEA11424FEA144721EAF7
:10133000024624EA074C02FB07F106FB07F70CFB09
:1013400006F402FB0CFC14EB074441EB17414FEA97
:10135000154714EB0C4441EB1C4125EA074C02FBFA
:1013600007F506FB07F70CFB06F602FB0CFC16EB79
:10137000074645EB174516EB0C4645EB1C42121988
:1013800051F1000148BF7047B619524141EB0101CC
:10139000A3F1010370474FEA14454FEA114724EACD
:1013A000054621EA074C05FB07F106FB07F70CFB96
:1013B00006F24FF0000605FB0CFC12EB074241EB76
:1013C000174112EB0C4251EB1C4148BF7047921879
:1013D00041EB0101A3F101037047FEE7704772B6CC
:1013E000FEE7000070B5044600F0FEF80546601CFC
:1013F00002D004480078044400F0F6F8401BA042F4
:10140000FAD370BD100000202DE9F84FDFF8A49149
:10141000002409F1040A0AF1040B23464FF00F08D7
:101420000BF1040EBEE00127A7403A40BA4272D148
:10143000DFF884C14D68A5EB0C0665452BD00DDCAB
:10144000032D34D005DC35B3012D19D0022D2FD159
:101450001BE0112D16D0122D2AD119E0B6F5881FE8
:1014600019D006DCB6F5803F15D0B6F5801F1FD128
:1014700011E0B6F5001F0ED0B6F5041F18D10AE032
:10148000CB6815E0CB681B1D12E0CB6808330FE07A
:10149000CB680C330CE08B682BB1012B4FF00803A9
:1014A00003D0476104E0042302E0076100E0002369
:1014B000FF2A01D8064601E000F104064FEA840540
:1014C00001D9A5F12005376808FA05FC27EA0C07C1
:1014D00003FA05F547EA050737604D68ED0060D56A
:1014E000364DAE6946F00106AE61AD6924F00306E3
:1014F00005F001050095324D7719BE68A5072D0F3F
:1015000008FA05FC26EA0C06DFF8B8C0604503D1EE
:101510004FF0000C17E044E0DFF8ACC0604502D1AA
:101520004FF0010C0FE0DFF8A4C0604502D14FF08E
:10153000020C08E0DFF898C0604502D14FF0030CC0
:1015400001E04FF0040C0CFA05FC4CEA060CC7F85D
:1015500008C04D68D9F80060ED034D4601D516432B
:1015600000E096432E604D68DAF80060AD03554602
:1015700001D5164300E096432E604D68DBF800600D
:10158000ED025D4601D5164300E096432E604D689E
:10159000DEF80060AD02754601D5164300E09643C3
:1015A0002E60641C0A6832FA04F57FF43CAFBDE893
:1015B000F88F0000000401400000111000100240EC
:1015C0000000014000080140000C014000100140F3
:1015D000001401408068084000D0012070470AB123
:1015E000016170470904FBE701488068704700000B
:1015F0001000002070B5040025D094F83D000025AF
:1016000020B984F83C50204600F078FA242084F871
:101610003D002068016821F0010101602068016837
:1016200041F4004101602068016821F4004101603B
:1016300000F0C6FB4D4B6168994201D84C4900E06F
:101640004C49884201D2012070BD4B492268B0FB51
:10165000F1F1566826F03F060E43566062689A42E2
:1016600006D94FF4967251434FF47A72B1FBF2F1FE
:101670002268491C166A26F03F06314311626168F0
:10168000994210D84900401EB0FBF1F2521CC2F33F
:101690000B02042A01D2042022E0B0FBF1F0401C2E
:1016A000C0F30B001CE0A268F2B301EBC10303EB33
:1016B0000116431EB3FBF6F35B1C43F480431B058A
:1016C00049D092B301EBC10202EB0111401EB0FB05
:1016D000F1F0401CC0F30B0040F4804040F40040A7
:1016E0002168CA694CF6FF739A431043C861D4E974
:1016F000071001432068026822F0C0021143016014
:10170000D4E9030101432068826848F2FF339A4319
:1017100011438160D4E9051001432068C26822F0BA
:10172000FF021143C16001E00EE016E0206801688D
:1017300041F0010101602564202084F83D0025630B
:1017400084F83E50002070BD01EB4106431EB3FB00
:10175000F6F35B1CB3E70120C2E701EB4101401E39
:10176000B0FBF1F0401CC0F30B00B7E7A08601000E
:1017700080841E0000093D0040420F002DE9FF4F0C
:1017800083B00026DDE910799A4693460446DDF8D9
:1017900048800096FFF728FF054694F83D00202872
:1017A0007CD11923012285492046009500F0C8FF0D
:1017B0000028F5D194F83C0001286FD0012084F86E
:1017C0003C0020680168C90703D1016841F00101AC
:1017D00001602068016821F400610160222084F822
:1017E0003D00402084F83E0026646762A4F82A90F9
:1017F000608D20857248E062CDE9008553465A46E7
:101800002046049900F0A4FE00287DD1208DDFF849
:10181000B491202768B1012814D0022820680168FB
:101820001ED041F4806101602068416980690090A8
:10183000B6E02068416981690091016841F4007156
:101840000160ADE02068016821F48061016072B63A
:101850002068416981690091016841F400710AE0E2
:1018600041F40061016072B62068416981690091AC
:10187000016821F48061016062B691E0032868D8B4
:1018800001280CD0022843464FF00002494620466A
:1018900000950FD000F054FFB0BB10E08BE02A465B
:1018A0004146204600F0CCFF70BB20680069616AA9
:1018B00008706CE000F044FF30BB72B634E0206882
:1018C000016821F48061016072B620680069616A74
:1018D0000870606A401C6062208D401E2085608D0B
:1018E000401E6085384846F2A8110068B0FBF1F050
:1018F000C0EBC00000EB80000090401E009008D0BC
:1019000020684069C04300E029E040070CD50098FA
:10191000F3E744F8306F6773A673206940F0200046
:10192000206162B626731AE02068016841F40071F4
:10193000016020680069616A0870606A401C60622A
:10194000218D491E2185618D491E618562B6216800
:101950001BE02A464146204600F072FF18B10120E4
:1019600007B0BDE8F08F20680069616A0870606A9E
:10197000401C6062218D491E2185618D491E618553
:1019800021684A69D24352070AD409690170606A22
:10199000401C6062208D401E2085608D401E608549
:1019A000208D00287FF46AAF84F83D7084F83E6093
:1019B00084F83C60D4E70220D2E700000200100067
:1019C0000000FFFF040001000C0000202DE9FF4F84
:1019D00083B09A46DDE9119793460446DDF84080CE
:1019E000FFF702FE054694F83D0020287FD1192319
:1019F000012240492046009500F0A2FE002876D141
:101A000094F83C00012872D0012084F83C00206842
:101A10000168C90703D1016841F001010160206834
:101A2000016821F400610160212084F83D0040201C
:101A300084F83E0000262664C4F82480A4F82A9086
:101A4000608D20852C48E062CDE9007553465A46EA
:101A50002046049900F0FAFD70B930E02A46394674
:101A6000204600F022FF58B1206C042804D12068E1
:101A7000016841F400710160012007B0BDE8F08FFA
:101A8000606A216800780861626A521C6262208D77
:101A9000401E80B22085618D491E618521684B6999
:101AA000DB435B070BD468B110780861606A401CA7
:101AB0006062208D401E2085608D401E6085208DD7
:101AC0000028CBD12A463946204600F013FE0028D4
:101AD000CAD154F83D0B016841F400710160202027
:101AE00004F81E09E67766770020C6E7FFE70220C4
:101AF000C3E70000020010000000FFFF10B586B031
:101B00000021009101910291039100680F498842E0
:101B10001AD10F4CA06940F00800A061A069694685
:101B200000F008000490E0200090122001900320B3
:101B300003900848FFF768FCE06940F40010E0619A
:101B4000E06900F40010049006B010BD005400409D
:101B500000100240000C01400248816802781144E4
:101B60008160704710000020074810B5016841F0FF
:101B700010010160032000F075F8002000F006F865
:101B800000F024F8002010BD0020024070B50D4D7B
:101B900004464FF47A712878B1FBF0F00A490968DD
:101BA000B1FBF0F000F068FB48B9102C07D200221E
:101BB0002146501E00F036F800206C6070BD0120F8
:101BC00070BD0000100000200C0000200C4808B57B
:101BD000816941F001018161816901F00101009198
:101BE000C16941F08051C161C069064900F080506F
:101BF0000090486820F0E06040F08060486008BDD8
:101C00000010024000000140002809DB00F01F0224
:101C1000012191404009800000F1E020C0F800114E
:101C200070470000F0B40E4B1B68C3F30223C3F1EE
:101C30000704042C00D904241D1D072D01D2002304
:101C400000E0DB1E012606FA04F56D1E0D409D40E6
:101C50009E40761E164045EA0601F0BC01F021BB0D
:101C60000CED00E0064A00F0070110684FF6FF0394
:101C7000184040EA01200349084310607047000003
:101C80000CED00E00000FA052DE9F0470D460400D8
:101C900067D0DFF81881D8F8000000F00700A842EC
:101CA0000CD2D8F8001021F007012943C8F8001021
:101CB000D8F8000000F00700A84252D120683C4E3E
:101CC000810712D5400703D5706840F4E06070606A
:101CD0002078000703D5706840F460507060706829
:101CE000A16820F0F000084370602078C00727D07A
:101CF0006068012810D03168022810D089070029B7
:101D00002FDA716821F0030101437160FFF76CFC69
:101D1000074641F288390CE031688903EFE7890111
:101D2000EDE7FFF761FCC11B494502D90320BDE87F
:101D3000F0877068616800F00C00B0EB810FF0D1A3
:101D4000D8F80010404601F00701A9420BD90168FC
:101D500021F0070129430160006800F00700A84254
:101D600001D00120E3E72078400705D57068E168DD
:101D700020F4E060084370602078000706D57068A2
:101D8000216920F4605040EAC100706000F028F83A
:101D90007168084AC1F30311515CC84006490860E4
:101DA00006480068FFF7F2FE0020C0E7002002406E
:101DB000001002403A3900080C00002014000020F6
:101DC0000448054900684968044AC1F30221515C8E
:101DD000C84070470C000020001002404A3900083B
:101DE000F0B524A089B00FC88DE80F0025A004AC81
:101DF0000FC884E80F00274B586800F00C01042935
:101E000004D0082904D0244809B0F0BD2348FBE7DA
:101E1000C0F38342C0031DF8024028D5D86A04A944
:101E200000F00F00085CD96AC90316D5D96AC1F35E
:101E30000312D96A521CC1F30321891CA2FB00239F
:101E4000A1FB0417154D0026A1FB050C07FB05C5DA
:101E500001FB0651FEF7F6F903E010496143B1FBBF
:101E6000F0F09DF80D10A142CED14008CCE70C480F
:101E70006043C9E7000004050607080900000000E8
:101E8000000D00000102030405060708090A0B0CF7
:101E90000D0E0F100010024000127A00809698007C
:101EA00000093D002DE9F84F04006ED02078ED4D7B
:101EB000C00747D06868C0F38100012807D0686870
:101EC000C0F38100022809D16868C00306D52868DC
:101ED000800337D5A0680028E7D033E0A068B0F5CC
:101EE000803F0BD010B1B0F5A02F11D0286820F49E
:101EF00080302860286820F4802002E0286840F4C0
:101F000080302860A06888B1FFF76EFB064609E0C4
:101F1000286840F480202860F0E7FFF765FB801B0D
:101F2000642874D828688003F7D50BE0FFF75CFBC2
:101F3000064604E0FFF758FB801B6428F1D82868A8
:101F40008003F7D42078C84E80074FF0010A4FF085
:101F500000073AD5686810F00C0F07D06868C0F326
:101F60008100022809D16868C00306D42868800768
:101F700015D56069012808D111E06069B8B1C6F8CB
:101F800000A0FFF731FB804606E041E1FFF72CFBA4
:101F9000A0EB08000228C4D828688007F6D5286876
:101FA000A16920F0F80040EAC10028600DE0376028
:101FB000FFF71AFB804605E0FFF716FBA0EB0800D1
:101FC0000228AED828688007F6D4207800072DD5DF
:101FD000A648E169E1B1C0F800A0FFF705FB804623
:101FE00005E0FFF701FBA0EB0800022899D8686A1A
:101FF0008007F6D59E484FF4FA510068B0FBF1F027
:10200000009000BF0098411E0091FAD20EE0B1E0AE
:102010000760FFF7E9FA804605E0FFF7E5FAA0EB75
:10202000080002288AD8686A8007F6D4207840071A
:1020300062D5E8694FF00009C00009D4E86940F0B2
:102040008050E861E8694FF0010900F0805000908D
:1020500088480168C90512D40168834641F480713B
:102060000160FFF7C1FA804605E0FFF7BDFAA0EB7B
:10207000080064287ED8DBF80000C005F5D520698B
:1020800001280AD008B1052813D0286A20F00100E1
:102090002862286A20F0040002E0286A40F001006B
:1020A0002862206941F2883B90B1FFF79DFA804693
:1020B0000AE0286A40F004002862EEE7FFF794FA8D
:1020C000A0EB0801594555D8286A8007F6D50CE0E1
:1020D000FFF78AFA804605E0FFF786FAA0EB0801D1
:1020E000594547D8286A8007F6D4B9F1000F03D0C4
:1020F000E86920F08050E861E06AE0B36968C903EC
:1021000007D56968C1F38101022902D1E96AC903CF
:102110007ED4022808D0E86A20F48030E862B766EE
:10212000FFF762FA80463BE02868C00005D5E86A00
:10213000616B00F0F00088426AD1B766FFF754FA8D
:10214000804605E0FFF750FAA0EB0800642871D83C
:1021500028680001F6D4E86A616B20F0F0000843BB
:10216000E862E86A216B20F470600843E862C6F810
:1021700068A001E05EE016E0FFF736FA804605E071
:10218000FFF732FAA0EB0800642853D82868000152
:10219000F6D508E0FFF728FAA0EB0800642849D834
:1021A00028680001F6D4206A98B36968C1F38101F8
:1021B000022946D00228376603D0FFF715FA0446F5
:1021C0003BE0FFF711FA074604E0FFF70DFAC01BEA
:1021D00002282FD828688001F7D4606AB0F5803FC4
:1021E00009D1E86A61680843E862E86AE16820F0BA
:1021F0000F000843E862D4E909010843696821F443
:10220000741108436860C6F860A0FFF7EDF901E0BB
:1022100024E025E0044604E0FFF7E6F9001B02286D
:1022200008D828688001F7D51AE0FFF7DDF9001B10
:10223000022802D90320BDE8F88F28688001F4D471
:102240000EE00128F7D06868626A00F4803191429C
:1022500004D1A16A00F47010884201D00120EAE79D
:102260000020E8E7001002400000424280044242A1
:102270000C0000200070004010B5401EB0F1807FBF
:1022800001D3012010BD4FF0E02460610F216017E1
:1022900001F007F80020A06107202061002010BD98
:1022A0007047704770B590F83C20012A29D001256D
:1022B00080F83C50022280F83D2002685368946800
:1022C00023F070060B68334353600F4B02689A4249
:1022D0000BD0B2F1804F08D00C4B9A4205D00C4B7A
:1022E0009A4202D00B4B9A4204D1496824F08003F1
:1022F0001943916080F83D50002180F83C10084659
:1023000070BD022070BD0000002C014000040040A0
:1023100000080040000C004010B5040003D094F801
:102320003D0010B107E0012010BD002084F83C0002
:10233000204600F01FF8022084F83D00211D20688F
:1023400000F0DCFC012084F8460084F83E0084F8AC
:102350003F0084F8400084F8410084F8420084F88B
:10236000430084F8440084F8450084F83D000020D0
:1023700010BD000008B500680B49884212D10B4817
:10238000C16941F02001C161C069002200F0200054
:10239000009011463720FFF745FCBDE80840372084
:1023A000FFF732BC08BD00000014004000100240DE
:1023B000704770B50446006801694FF00005C943D5
:1023C000890715D4C168C943890711D4E91E016181
:1023D00001202077206880698007204602D0FFF71F
:1023E000E7FF04E000F098F8204600F096F8257723
:1023F00020680169C943490717D4C168C94349071F
:1024000013D46FF0040101610220207720688069F5
:1024100010F4407F204602D0FFF7CAFF04E000F02E
:102420007BF8204600F079F8257720680169C943D8
:10243000090716D4C168C943090712D46FF008010F
:102440000161042020772068C0698007204602D0FF
:10245000FFF7AEFF04E000F05FF8204600F05DF803
:10246000257720680169C943C90617D4C168C943E3
:10247000C90613D46FF0100101610820207720688D
:10248000C06910F4407F204602D0FFF791FF04E0BE
:1024900000F042F8204600F040F8257720680169F6
:1024A000C943C90708D1C168C943C90704D1891EF6
:1024B0000161204600F032F820680169C94309062D
:1024C00009D4C168C943090605D46FF080010161D0
:1024D0002046FFF7E5FE20680169C943490609D493
:1024E000C168C943490605D46FF040010161204627
:1024F00000F015F820680169C94389060BD4C1684A
:10250000C943890607D46FF0200101612046BDE868
:102510007040FFF7C6BE70BD704770477047704788
:10252000FEE701684A69D24352050FD46FF4806216
:102530004A61002140F8301F2022427381730269F2
:1025400042F00402026101730120704700207047CD
:102550002DE9F84F0446006889460B9E01689846AD
:10256000174641F4806101602068016841F4807180
:10257000016000964FF0011B0022594620460A9B3D
:1025800000F0DEF84FF4007A40B120680068C00522
:1025900001D5C4F840A00320BDE8F88F216809F0F8
:1025A000FE0008613346284920460A9A00F0FCF8EC
:1025B000F0BB2068416980690090324620460A9944
:1025C00000F073F940B1206C04283AD1206801680A
:1025D00041F40071016034E0FDB2B8F1010F09D09F
:1025E0002168380A0861324620460A9900F05DF9F0
:1025F0000028E8D120680561324620460A9900F09B
:1026000054F90028DFD12068016841F4807101602D
:1026100000960022594620460A9B00F091F80028B7
:10262000B3D1216809F0FF0040F00100086100E02B
:1026300007E03346044920460A9A00F0B5F800281E
:10264000AAD00120A8E70000020001002DE9F8430C
:10265000044600680D46DDE908970168984616466D
:1026600041F4807101604B4600224FF00111204679
:10267000009700F065F848B120680068C00502D5F1
:102680004FF4007020640320BDE8F883216805F052
:10269000FE0008613B464A461549204600F084F892
:1026A00088B920684169806900903A4649462046C9
:1026B00000F0FBF848B1206C042804D120680168C0
:1026C00041F4007101600120DEE7F5B2B8F1010FBD
:1026D00009D02168300A08613A464946204600F090
:1026E000E4F80028E7D1206805610020CCE700006D
:1026F0000200010070B516460D4604460DE0204666
:10270000FFF70FFF08B1012070BD681C05D0FEF770
:102710006BFF801BA84207D835B120684069C043D1
:102720004007ECD4002070BD002044F8300F202179
:102730006173A073216941F0200121612073E2E7F8
:102740002DE9F0471D4690460E460446C1F3074763
:10275000DDF8209008E0681C06D0FEF745FFA0EBEE
:102760000900A8420FD875B12068012F18D08069E0
:1027700026EA00000004000C14D000204045EAD0F6
:102780000020BDE8F087002044F8300F202161735D
:10279000A073216941F02001216120730120F0E73D
:1027A0004069E5E70120E9E72DE9F047984615463D
:1027B0000E4604464FF000094FF0200AC1F30747C8
:1027C00023E020684069C043400515D420680168B3
:1027D00041F40071016021686FF480604861C4F8C1
:1027E000309084F83DA084F83E90216C41F00401C3
:1027F000216484F83C901EE0681C06D0FEF7F4FECD
:10280000A0EB0800A8420AD84DB12068012F15D0CE
:10281000806926EA00000004000C0DD0D1E744F8DE
:10282000309F84F80DA084F80E90216941F02001BA
:10283000216184F80C900120BDE8F0874069E8E749
:102840002DE9F04116460D46044600274FF02008BA
:1028500017E04069C043C0060DD454F8301B6FF038
:102860001000486144F80D7B04F81D89A777206AA1
:102870002062277717E0FEF7B7FE801BA84208D832
:102880003DB120684169C9434906E2D40020BDE852
:10289000F08144F8307F84F80D80A773206940F000
:1028A0002000206127730120F1E770B516460D4620
:1028B00004460DE02046FFF734FE08B1012070BD4C
:1028C000681C05D0FEF790FE801BA84207D835B1E2
:1028D00020684069C0430006ECD4002070BD002091
:1028E00044F8300F20216173A073216941F0200169
:1028F00021612073E2E7012000F0B0B800EB811005
:10290000C0B240F0800000F0A9B800007CB50024FF
:102910008DF8004024484FF4FE61019401600121CC
:1029200041600321C160214D01462846FEF76CFD40
:10293000002229152846FEF752FE0022A915284636
:10294000FEF74DFE002269152846FEF748FE0A20D4
:10295000FEF748FD8DF800400AE0032000F0B6F8CD
:102960000A20FEF73FFD9DF80000401C8DF8000096
:102970009DF800000328F0D3022000F0A7F80A20F9
:10298000FEF730FD282000F069F8082000F066F816
:10299000012000F063F8062000F060F8BDE87C40FC
:1029A0000C2000F05BB800001C0000200018014063
:1029B00070B50122124E550229463046FEF70FFE31
:1029C00010213046FEF706FE044620213046FEF771
:1029D00001FE44EA400440213046FEF7FBFD44EA94
:1029E000800480213046FEF7F5FD44EAC000C4B201
:1029F000002229463046FEF7F2FD204670BD000059
:102A0000001801402DE9F041124CF0260025124F2C
:102A1000C4E9006521463846FEF7F6FC0122910222
:102A20003846FEF7DCFD0022B9153846FEF7D7FD23
:102A3000FFF7BEFF45EA0010C5B2FFF7B9FF054337
:102A40000120C4E9006021463846FEF7DDFC284637
:102A5000BDE8F0811C0000200018014070B50C4D4D
:102A6000044600224FF480612846FEF7B8FD00229C
:102A7000A9152846FEF7B3FD200900F027F804F059
:102A80000F0000F023F8FFF7BDFF0006FBD470BD78
:102A90000018014070B50C4D044600224FF48061CF
:102AA0002846FEF79CFD012211022846FEF797FDFD
:102AB000200900F00BF804F00F0000F007F8FFF712
:102AC000A1FF0006FBD470BD0018014070B50122C3
:102AD000124E0446550229463046FEF780FD04F0AA
:102AE000010210213046FEF77AFD04F00202202197
:102AF0003046FEF774FD04F0040240213046FEF734
:102B00006EFD04F0080280213046FEF768FD29467C
:102B10003046BDE870400022FEF761BD001801405C
:102B200010B5044602E0641CFFF7B4FF20780028CB
:102B3000F9D110BD10B50B46044611461846FFF7F3
:102B4000DDFE02E0641CFFF7A5FF20780028F9D124
:102B500010BD00002DE9F04786B000243A480094EB
:102B6000019402940394816941F04001816181697B
:102B700001F040010491816941F010018161816996
:102B800001F010010491816941F0080181618169BE
:102B900001F008010491816941F02001816180699F
:102BA000DFF8A89000F020004FF47C55049000223C
:102BB00029464846FEF713FD4FF44048012241469E
:102BC0004846FEF70CFDDFF888A00022FF215046A2
:102BD000FEF705FDFF26CDE90064694648460294EC
:102BE000FEF712FC43F2F030CDE9000469461948C3
:102BF0000294FEF709FC4CF20220CDE9000469467C
:102C000015480294FEF700FC0127CDE90057022584
:102C100069464846CDE90245FEF7F6FB01AA1120B8
:102C2000CDF8008082E8310069464846FEF7ECFBAB
:102C300069465046CDE90245CDE90067FEF7E4FB61
:102C400006B0BDE8F0870000001002400018014007
:102C50000014014000100140000C01400D4810B567
:102C60000B4901600C49416000214FF480428160B2
:102C7000C0E9031241618161C1610162FEF7BAFCE2
:102C8000002803D0BDE81040FEF7A9BB10BD00002E
:102C9000005400402C010020A08601001CB5002437
:102CA0000F4800940D49019401604FF4E151C0E9CF
:102CB00001144FF47A718461C160FFF72DFB08B1F4
:102CC000FEF78DFB0094694605480194FFF7EAFA88
:102CD000002801D0FEF783FB1CBD0000001400405B
:102CE00080010020FEE7FEE7FEF736BF70470000D8
:102CF0000148FFF75EBB000080010020F0B50268CC
:102D0000184C194D194E1A4F4FF0804CA04207D065
:102D1000604505D0A84203D0B04201D0B84203D1EB
:102D200022F070034A681A43A04207D0604505D0DC
:102D3000A84203D0B04201D0B84203D122F440737C
:102D4000CA681A434B6922F080021A4302608A68FB
:102D5000C2620A688262A04201D10969016301214D
:102D60004161F0BD002C014000040040000800401B
:102D7000000C0040FEE7000030B593B038216846F3
:102D8000FDF797FB14210EA8FDF793FB01252804FE
:102D90000421CDE902010224CDE90840009501900B
:102DA00005954FF4E010CDE90A044FF4C0600C9093
:102DB00010200D906846FFF775F808B172B6FEE76F
:102DC0000F20CDE90E0400204FF48061CDE9100101
:102DD000129002210EA8FEF757FF08B172B6FEE767
:102DE0000148056713B030BD000042422DE9FC47A1
:102DF0009A4691468846044608236A46F72100F021
:102E000014FA00287DD09DF803009DF801200103ED
:102E10009DF80400B4F9023041EA00109DF8051055
:102E200040EA11109DF80010090341EA02129DF8D2
:102E3000021042EA1117BDF80610C2104EBA2188DE
:102E4000A2EB4102C1EB20104043B4F904105A43F5
:102E50000013D212484302EBA03505EB8500803009
:102E6000001200F08DFC2A4900F0C8FBC8F80000F1
:102E70002A463946204600F04DF800F02BFB6FF053
:102E8000070200F014FD00F0EBFAC9F80000E18B36
:102E9000B003A0EB0150A5F59635B4F92010227FC0
:102EA00001FB150094F922106A4369434FF4004373
:102EB000891203EBE22251439A0102EBA121B4F9FA
:102EC0001A2000F58040514301F50051C0138913C9
:102ED0004843C1134943227EC9115143B0EB21102D
:102EE00000D500204FF0C851884200DD084600138D
:102EF00000F0F0FA6FF0090200F0D9FC00F0B0FA2F
:102F000000E002E0CAF800000120BDE8FC870000F4
:102F10000000C8422DE9F05F8B4604465149D017A6
:102F20005118A1FB013240F1FF3000FB012201FBEF
:102F30000028B4F910204FF0000AA3FB0297D51720
:102F400008FB027203FB0525B4F90E20A2FB017CED
:102F5000D61706FB01C602FB0062520442EAD732D2
:102F60007F0417EB09066A41B4F90C50EF001AEB25
:102F7000060547EB0209B4F90A20A3FB027CD61729
:102F800008FB02C203FB06223E0A46EA026613124F
:102F9000B4F90820A2FB01784FEAE27C0CFB018126
:102FA00002FB00100103380341EA175130184B416E
:102FB000001CE18843F50043A0FB017603FB01619F
:102FC00000FB0A104210C31752EA030048D0CBF5A9
:102FD0008010C117CE0746EA5006C007401B40F6D6
:102FE0003541A0FB015C66EB090606FB01C1002729
:102FF00000FB07112846FDF79CF9B4F91620430B96
:1030000043EAC143A2FB037CD61706FB03C64D135C
:1030100002FB0562A7FB036C02FB03C207FB052250
:10302000730E43EAC2135516B4F91420A2FB007CB8
:10303000D61706FB00C602FB0166FA0CC01842EA6E
:1030400046326941801841EBE6414FEA016242EAAB
:103050001021B4F912004FEA00100818BDE8F09FE3
:103060000020FBE7000CFEFF1CB5044602230246CD
:10307000882100F0DAF800287ED00223A21C8A21E1
:10308000204600F0D2F8002876D00223221D8C21A1
:10309000204600F0CAF800286ED00223A21D8E211F
:1030A000204600F0C2F8002866D0022304F108028E
:1030B0009021204600F0B9F8002879D0022304F1CD
:1030C0000A029221204600F0B0F8002870D00223B6
:1030D00004F10C029421204600F0A7F8002867D0E4
:1030E000022304F10E029621204600F09EF80028EB
:1030F0005ED0022304F110029821204600F095F8DA
:10310000002855D0022304F112029A21204600F033
:103110008CF888B3022304F114029C21204600F0AD
:1031200084F848B3022304F116029E21204600F0E1
:103130007CF808B3012304F11802A121204600F015
:1031400074F8C8B1022304F11A02E121204600F00C
:103150006CF888B1012304F11C02E321204600F041
:1031600064F848B102236A46E421204600F05DF885
:1031700010B1022301AA00E01AE0E521204600F088
:1031800054F8A8B1012304F12202E721204600F0FF
:103190004CF868B1BDF80000C1B2C0F3032040EAAA
:1031A0000110E083BDF804000009208401201CBD4B
:1031B00000201CBD38B50D4604460123B622E0218F
:1031C00000F046F800282FD001232A46D0212046BF
:1031D00000F02BF8002827D001236A46F32120466F
:1031E00000F023F89DF800108843F5D02046FFF743
:1031F0003BFF002818D001236022F521204600F073
:1032000027F8002810D001230322F221204600F0E5
:103210001FF8002808D001236F22F421204600F077
:1032200017F8002800D0012038BD3EB50C4699B2F1
:10323000CDE9002141F288350295018D406A0123D4
:103240002246FEF79BFA08B100203EBD01203EBD9C
:103250001FB584B00A4699B206ABCDE9003141F200
:1032600088340294018D406A0123FEF7AFFB10B150
:10327000002008B010BD0120FBE7490050EAC12042
:1032800018BF04204A0D18BF40F0010040F2FF7241
:10329000B2EB515F08BF40F00200012808BF0520D3
:1032A00070470907090E002804DB00F1E02080F8D0
:1032B0000014704700F00F0000F1E02080F8141DAA
:1032C000704730380A2801D201207047002070472B
:1032D0008EB0FEF749FCFFF74FFDFFF73BFCFFF711
:1032E000DDFCFFF7BBFCFFF711FB0022114637A006
:1032F000FFF720FC0122002138A0FFF71BFC40F65D
:10330000B830FEF76FF839480B90EC20ADF830007C
:103310004FF4FA6707E00DA8FFF702FC3846FEF706
:1033200061F8FFF7E8FA0DA902A8FFF743FF0028AC
:10333000F1D09DF83400582803D0002018B12CA0FB
:1033400002E00120FAE72CA0FFF7EAFB642003E08B
:103350002BA0FFF7E5FB3846FEF744F82C4B02A8FC
:10336000A3F10802111DFFF741FD0028F0D0FFF77F
:10337000C2FA274C2749083C206800F03FF900F0CA
:1033800011F902460B4624A12548FCF7F7FF01225C
:1033900000212348FFF7CEFBA06800F003F90546A3
:1033A0000E46606800F0FEF8CDE9005602460B4676
:1033B0001CA11B48FCF7E2FF002211461848FFF74A
:1033C000B9FB3846FEF70EF8C0E7000050726F6A8E
:1033D000656B743B20506C65636800004269656CE6
:1033E00065636B69204D726F7A656B002C0100205C
:1033F000424D453238300000424D503238300000E6
:1034000072656164696E67206661696C656400005D
:10341000080000200000C842252E32666850610076
:103420002C000020252E32664320252E32662525CD
:103430000000000010B500290AD00878002807D045
:1034400005487844FDF7BAFB002801D0002010BDE4
:103450000248784410BD0000C6050000BE0500000B
:1034600021F00042A2F16052B2F5801F01F000434A
:1034700028BFD2F17F6C0BD95FEA001C43EAC2027D
:1034800042EB507018BF704728BF20F00100704712
:10349000B2F5801FBCBF184670474FEA410C1CF5BF
:1034A000001F02D2084600F0C9B970B500F025F837
:1034B00000000089FFF7F6BF4FF00040A0F5800044
:1034C0007047000002494FF0000000F0BEB900BF95
:1034D0000000F87FB0FA80F310FA03F10AD0C3F1CC
:1034E0001D0303F580634FEA41504FEA035202EB9C
:1034F000D12170474FF0000070470EF1020E2EF000
:10350000030E5EF8046B364205D4012A43EB030533
:1035100015F5001F12D8012841EB010C1CF5001F06
:103520000CD80ED14FEAD17C15F5001F0CEB4C0CDA
:103530000CF1020C08BF4CEBD37C04E04FF0080CFC
:1035400001E04FEAD37C0CEB4C0526FA05F606F0B9
:103550000706B6F1040C06D20EEB860CBDE87040EF
:103560004CF0010C6047DFE80CF0090B02024FF051
:1035700000414FF00000A1F5002170BD1946104632
:10358000012851EB010418BFD4F5001484BF0020BA
:1035900001F0004170BD0808A0F500114FEA3101AB
:1035A0007047000043004FEAD30C4FEA3C0C434005
:1035B0001FBF40070CF1605113F0FE4F70471CF025
:1035C000006F03D100200CF0004170470CF0004365
:1035D00043EA507010B540EACC0000F0E9F800BFB3
:1035E000000000924FEA0001FFF7D5BF4FF0004105
:1035F0004FF00000A1F50021704700004FF47F0C50
:103600001CEAD0121EBF1CEAD11392EA0C0F93EAF7
:103610000C0F00F0858090EA010F48BF42F48072E1
:1036200040F4000C41F400002CF07F4120F07F407A
:1036300000B58142A2EB03020FF2081CACEB504E26
:10364000C0F100009EF800E04FEA4E0E00FB0EFCB9
:1036500038BF49004FEA2C1C02F5FA020CFB0EF3AE
:103660004FEACE1E4FEA112C4FEAC1210EEB635EEA
:1036700042EB22420EFB0CFC4FEA1C5300FB0311F1
:103680004FEA112C4FEA01310EFB0CFC4FEADC4CE7
:1036900000FB0C11C14228BF09184CEB03335DF845
:1036A00004EB10EB410143EBC250B2F57C0F38BF85
:1036B000704729D512F0F00F1CBF00F1C04000F098
:1036C00000407047008182838485868788898B8C3F
:1036D0008D8E8F919293959697999A9C9D9FA0A27B
:1036E000A3A5A7A8AAACAEB0B2B3B5B7B9BCBEC0CB
:1036F000C2C5C7C9CCCED1D4D7D9DCDFE2E6E9EC6C
:10370000F0F3F7FAFE0000004FEA400C0CF1807C69
:10371000BCF17E4F28BF7047B0F1C04000F08EB8BA
:1037200090EA010F0CEAD11348BF42F4807262455F
:1037300038BF634507D213F47F0F16D080EA01002B
:1037400000F00040704710B500F032F8097EFC3EF2
:1037500000F005B880EA010000F00040704780EA00
:10376000010000F0004000F069B812F47F0F04BFC0
:103770000248704780EA010000F060B80000C07F96
:1037800010F0004148BF4042B0FA80F310FA03F253
:10379000C3F19D030BD051EAC35101EB1220530634
:1037A00038BF704700F1010008BF20F001007047EA
:1037B0000EF1020E2EF0030E5EF8044B244204D4E8
:1037C0004FEA4102B2F17F4F11D84FEA4003B3F103
:1037D0007F4F0CD80ED14FEAD07CB2F17F4F0CEB6B
:1037E0004C0C0CF1020C08BF4CEBD17C04E04FF008
:1037F000080C01E04FEAD17C0CEB4C0324FA03F4F3
:1038000004F00704B4F1040C06D20EEB840CBDE8FE
:1038100010404CF0010C6047DFE80CF00708020292
:103820004FF00040A0F5800010BD0846420018BFD0
:10383000D2F1807288BF00F0004010BDFF2141EA44
:10384000D050C0057047FCF737BF0CF00F03092BB1
:1038500008BF082000F059800A2B0BD0082B18BF96
:10386000704708BF1CF0400F0AD04FF000004FF027
:10387000000170471CF0400F18BF4FF00040704728
:103880001CF0100F08D020F0704300F07F4242EA95
:10389000D3014FEA4370704700F0604021F07F424F
:1038A00042EA000201F07F4040EA727070474FF038
:1038B000FF0C4CF4E06C1CEA11531CBF9CEA030C97
:1038C0009445C2BFDA4201EB02517047002B0DD084
:1038D000BCF1000F0FD0002A01F00041A4BF41F05D
:1038E000E04141F07F614FF00000704701F000417E
:1038F0004FF00000704750EA01334FF09B0C18BFA7
:103900004CF0806C7FF4DEAD70471CF4801F11D04A
:103910001CF4E02F03D06FEACC31490070474FF020
:103920004050EFF3008222F0704242EA000282F33C
:10393000008870474FF00000704700000000000052
:10394000000001020304060708090000000001024C
:103950000304000002400000000000A0000000007E
:1039600005400000000000C8000000000C400000FE
:103970000000409C00000000194000000020BCBE78
:103980000000000034400000BFC91B8E000000048E
:10399000B5400000504BCFD06607E2CF01000000D9
:1039A0006C4100003E8251AADFEEA7340100000006
:1039B000D9420000DCB5A0E23A301F97FFFFFFFFBD
:1039C000B4450000FD25A0C8E9A3C14FFFFFFFFFDC
:1039D000FF3F00000000008000000000FF3F0000EB
:1039E0000000008000000000243A000800000020D1
:1039F0001C0000008C010008403A00081C00002058
:103A00000C080000A80100081C0000004300000092
:103A1000F8FFFFFF0C0000000E0000000F00000088
:103A20002E00000000000000000000000000000068
:103A30000024F4000100000010000000000000005D
:04000005080001519D
:00000001FF
